{
  "transactions": [
    {
      "hash": "0xcc1e2d258668c59af38f25adf5cd57f43000ade93cc3a4eacda59db20f4b96b0",
      "transactionType": "CALL",
      "contractName": null,
      "contractAddress": "0x9ceca064cab740e5f511b426c7dbd7820795fe13",
      "function": "setBaseURI(string)",
      "arguments": [
        "https://metadata.syndicate.io/63888/0x9ceca064cab740e5f511b426c7dbd7820795fe13/"
      ],
      "transaction": {
        "from": "0x9a37e57d177c5ff8817b55da36f2a2b3532cde3f",
        "to": "0x9ceca064cab740e5f511b426c7dbd7820795fe13",
        "gas": "0xe043",
        "value": "0x0",
        "input": "0x55f804b30000000000000000000000000000000000000000000000000000000000000020000000000000000000000000000000000000000000000000000000000000004f68747470733a2f2f6d657461646174612e73796e6469636174652e696f2f36333838382f3078396365636130363463616237343065356635313162343236633764626437383230373935666531332f0000000000000000000000000000000000",
        "nonce": "0x2",
        "chainId": "0xf990"
      },
      "additionalContracts": [],
      "isFixedGasLimit": false
    }
  ],
  "receipts": [
    {
      "status": "0x1",
      "cumulativeGasUsed": "0xa25e",
      "logs": [],
      "logsBloom": "0x00000000000000000000000000000000000000000000000000000000000000000000000000000000000000000000000000000000000000000000000000000000000000000000000000000000000000000000000000000000000000000000000000000000000000000000000000000000000000000000000000000000000000000000000000000000000000000000000000000000000000000000000000000000000000000000000000000000000000000000000000000000000000000000000000000000000000000000000000000000000000000000000000000000000000000000000000000000000000000000000000000000000000000000000000000000",
      "type": "0x2",
      "transactionHash": "0xcc1e2d258668c59af38f25adf5cd57f43000ade93cc3a4eacda59db20f4b96b0",
      "transactionIndex": "0x1",
      "blockHash": "0x6c720a5c4b69dc850c2358ee21d124961d6a079b7647ac3facecd75536b86b2b",
      "blockNumber": "0x18",
      "gasUsed": "0xa25e",
      "effectiveGasPrice": "0x5f5e100",
      "from": "0x9a37e57d177c5ff8817b55da36f2a2b3532cde3f",
      "to": "0x9ceca064cab740e5f511b426c7dbd7820795fe13",
      "contractAddress": null,
      "gasUsedForL1": "0x0",
      "l1BlockNumber": "0x11"
    }
  ],
  "libraries": [],
  "pending": [],
  "returns": {},
  "timestamp": 1746459499,
  "chain": 63888,
  "commit": "b12073b"
}