{
  "transactions": [
    {
      "hash": null,
      "transactionType": "CALL",
      "contractName": null,
      "contractAddress": "0x9ceca064cab740e5f511b426c7dbd7820795fe13",
      "function": "setBaseURI(string)",
      "arguments": [
        "https://metadata.syndicate.io/63888/0x9ceca064cab740e5f511b426c7dbd7820795fe13/"
      ],
      "transaction": {
        "from": "0x9a37e57d177c5ff8817b55da36f2a2b3532cde3f",
        "to": "0x9ceca064cab740e5f511b426c7dbd7820795fe13",
        "gas": "0xe043",
        "value": "0x0",
        "input": "0x55f804b30000000000000000000000000000000000000000000000000000000000000020000000000000000000000000000000000000000000000000000000000000004f68747470733a2f2f6d657461646174612e73796e6469636174652e696f2f36333838382f3078396365636130363463616237343065356635313162343236633764626437383230373935666531332f0000000000000000000000000000000000",
        "nonce": "0x2",
        "chainId": "0xf990"
      },
      "additionalContracts": [],
      "isFixedGasLimit": false
    }
  ],
  "receipts": [],
  "libraries": [],
  "pending": [],
  "returns": {},
  "timestamp": 1746459487,
  "chain": 63888,
  "commit": "b12073b"
}